:100000000C9481000C94A9000C94A9000C94B104E8
:100010000C94B1040C94B1040C94A9000C94A900A4
:100020000C94A9000C94A9000C94A9000C94A900AC
:100030000C94A9000C94A9000C94A9000C94A9009C
:100040000C9467040C94A9000C9435040C940F04D0
:100050000C94A9000C94A9000C94A9000C94A9007C
:100060000C94A9000C94A9004E414E494E49545994
:10007000494E46CDCCCC3D0AD7233C17B7D1387773
:10008000CC2B329595E6241FB14F0A000020410089
:1000900000C84200401C4620BCBE4CCA1B0E5AAED3
:1000A000C59D740000000800020100000304070061
:1000B0000000000000000000000000250028002BC8
:1000C0000000000000240027002A00000000002398
:1000D00000260029000404040404040404020202AB
:1000E0000202020303030303030102040810204079
:1000F00080010204081020010204081020002B05D2
:10010000F30811241FBECFEFD8E0DEBFCDBF22E041
:10011000AAE4B1E001C01D92AC38B207E1F711E0EA
:10012000A0E0B1E0ECE8FDE102C005900D92AA3438
:10013000B107D9F710E0C0E8D0E004C02197FE0174
:100140000E949E0CCF37D107C9F70E942B060C9452
:10015000B90E0C940000CF93DF93C1E6D2E08C81FE
:100160009D81DC01ED91FC910190F081E02D6B818E
:1001700009951B82DF91CF910895CF93C82F80916D
:10018000650290916602DC01ED91FC910190F08195
:10019000E02D6C2F099580916302882389F090915E
:1001A00064028C2F892798E041E980FD8427282F5D
:1001B00030E035952795822F9150B9F7209364024E
:1001C000CF910895CF93909161029F3F59F0C82F2E
:1001D0008AEA0E94BD00809161028F770E94BD0073
:1001E0008C2F8F77CF910C94BD00CF92DF92EF923E
:1001F000FF920F931F93CF93DF936C017A018B01D2
:10020000C0E0D0E0CE15DF0589F0D8016D918D01F9
:10021000D601ED91FC910190F081E02DC601099588
:10022000892B11F47E0102C02196ECCFC701DF912A
:10023000CF911F910F91FF90EF90DF90CF90089595
:10024000FC01538D448D252F30E0842F90E0821BDC
:10025000930B541710F0CF96089501970895FC0161
:10026000918D828D981761F0828DDF01A80FB11DED
:100270005D968C91928D9F5F9F73928F90E0089511
:100280008FEF9FEF0895FC01918D828D981731F0CB
:10029000828DE80FF11D858D90E008958FEF9FEF1F
:1002A0000895FC01918D228D892F90E0805C9F4FF5
:1002B000821B91098F739927089586EA91E00E9425
:1002C000510121E0892B09F420E0822F0895FC01DF
:1002D000848DDF01A80FB11DA35ABF4F2C91848DCF
:1002E00090E001968F739927848FA689B7892C9304
:1002F000A089B1898C9180648C93938D848D98139F
:1003000006C00288F389E02D80818F7D8083089567
:10031000EF92FF920F931F93CF93DF93EC0181E055
:10032000888F9B8D8C8D981305C0E889F989808111
:1003300085FD24C0F62E0B8D10E00F5F1F4F0F734D
:100340001127E02E8C8DE8120CC00FB607FCFACFF7
:10035000E889F989808185FFF5CFCE010E94670188
:10036000F1CF8B8DFE01E80FF11DE35AFF4FF082B4
:100370000B8FEA89FB898081806207C0EE89FF8943
:100380006083E889F98980818064808381E090E0DE
:10039000DF91CF911F910F91FF90EF900895CF9330
:1003A000DF93EC01888D8823C9F0EA89FB8980817D
:1003B00085FD05C0A889B9898C9186FD0FC00FB64F
:1003C00007FCF5CF808185FFF2CFA889B9898C9190
:1003D00085FFEDCFCE010E946701E7CFDF91CF917E
:1003E000089580E090E0892B29F00E945D01811141
:1003F0000C940000089590E0FC01ED55FF4F3491FE
:10040000FC01E751FF4F2491FC01EB52FF4FE491B7
:10041000EE2309F43BC0332339F1333091F038F443
:100420003130A9F0323001F584B58F7D12C03730FC
:1004300091F03830A1F03430B9F4809180008F7D94
:1004400003C0809180008F77809380000DC084B5B9
:100450008F7784BD09C08091B0008F7703C08091F1
:10046000B0008F7D8093B000F0E0EE0FFF1FE954E5
:10047000FF4FA591B4918FB7F894EC91611103C02F
:1004800020952E2301C02E2B2C938FBF08952091F1
:100490009501309196012817390771F490919301D5
:1004A00080919401981741F0E0919301F0E0E65BB0
:1004B000FE4F808190E008958FEF9FEF089508959B
:1004C0001F93CF93DF93DC015C962D913C915D9758
:1004D0002115310539F481E090E013969C938E93B9
:1004E00012973DC05196ED91FC91529750969C9178
:1004F0005097892F80951FB75E964C915E9741FB70
:10050000772770F941FD6095F8944081772311F0C9
:10051000492B01C048234083E9012197F1F748E0C6
:10052000508160FF02C0592B01C058235083E9015C
:100530002197F1F76695415099F7772321F0908143
:100540008923808303C08081982B90831FBF5C9692
:100550008D919C915D970197F1F721E030E0C90101
:10056000DF91CF911F9108952091950130919601CF
:100570002817390771F4809194012091930190E03C
:10058000805C9F4F821B910960E470E00E94540CD4
:10059000089580E090E008952091950130919601B2
:1005A00028173907B9F49091930180919401981715
:1005B00089F0E0919301F0E0E65BFE4F80812091AD
:1005C000930130E02F5F3F4F2F7333272093930128
:1005D00090E008958FEF9FEF0895089580E090E0F8
:1005E0000895009769F0FC0101900020E9F7319728
:1005F000AF01481B590BBC0186EA91E00C94F50051
:1006000080E090E008958F929F92AF92BF92CF9238
:10061000DF92EF92FF920F931F93CF93DF93CDB7AB
:10062000DEB7A1970FB6F894DEBF0FBECDBF6C0149
:10063000990FEE08FF08F7FE31C0E091A601F09196
:10064000A7010190F081E02D6DE286EA91E0099525
:100650008C0122273327A9012C193D094E095F0976
:1006600019A2CE0181967C019AE0892E912CA12CB1
:10067000B12CCA01B901A50194010E94680C605D0A
:10068000F70162937F01211531054105510589F775
:10069000CF010E94F102080F191F1EC0A701960189
:1006A00019A28E010F5D1F4F8AE0C82ED12CE12CBC
:1006B000F12CCA01B901A70196010E94680C605D86
:1006C000F80162938F01211531054105510589F724
:1006D000CF010E94F1028C018CE291E00E94F102B4
:1006E000800F911FA1960FB6F894DEBF0FBECDBF4D
:1006F000DF91CF911F910F91FF90EF90DF90CF90FE
:10070000BF90AF909F908F9008950E949B0E0F9383
:100710001F93CF93DF93EC0188819981009729F093
:100720002A813B812617370788F48B016F5F7F4F43
:100730000E94D10D009761F0998388831B830A83FF
:100740002C813D81232B11F4FC01108281E001C03A
:1007500080E0DF91CF911F910F910895EF92FF926A
:100760000F931F93CF93DF93EC017B018A01BA01B2
:100770000E9487032881398181110DC0211531051F
:1007800019F0C9010E94390D198218821D821C823C
:100790001B821A8206C01D830C83B701C9010E9407
:1007A000B20ECE01DF91CF911F910F91FF90EF908C
:1007B0000895CF93DF93EC01FB0186179707B1F003
:1007C000608171816115710529F0448155810E9414
:1007D000AE030CC088819981009711F00E94390DF9
:1007E000198218821D821C821B821A82CE01DF911F
:1007F000CF910895FC01118210821382128215821A
:1008000014826115710551F0FB0101900020E9F798
:100810003197AF01461B570B0C94AE0308951F92FE
:100820000F920FB60F9211242F933F934F935F9324
:100830006F937F938F939F93AF93BF93EF93FF93A8
:1008400086EA91E00E946701FF91EF91BF91AF911D
:100850009F918F917F916F915F914F913F912F91D8
:100860000F900FBE0F901F9018951F920F920FB60A
:100870000F9211242F938F939F93EF93FF93E09107
:10088000B601F091B7018081E091BC01F091BD010A
:1008900082FD12C090818091BF018F5F8F73209184
:1008A000C001821751F0E091BF01F0E0EA55FE4F20
:1008B000958F8093BF0101C08081FF91EF919F913F
:1008C0008F912F910F900FBE0F901F9018951F9230
:1008D0000F920FB60F9211242F933F938F939F93F4
:1008E000AF93BF9380918F0190919001A09191015E
:1008F000B091920130918E0123E0230F2D3720F427
:100900000196A11DB11D05C026E8230F0296A11D69
:10091000B11D20938E0180938F0190939001A0933D
:100920009101B093920180918A0190918B01A091E5
:100930008C01B0918D010196A11DB11D80938A019A
:1009400090938B01A0938C01B0938D01BF91AF91D7
:100950009F918F913F912F910F900FBE0F901F90FD
:1009600018951F920F920FB60F9211242F933F9359
:100970004F935F936F937F938F939F93AF93BF93A7
:10098000EF93FF93E0919501F0919601309709F470
:1009900051C0968DA685B785858591FF04C09C9131
:1009A000892329F447C09C91892309F043C0A38976
:1009B000B4899C918589809589238C9386899789B0
:1009C0000197F1F7608D718DA685B785558538E063
:1009D00020E0CB010197F1F7822F90E09595879564
:1009E000282F4C91452309F02068315091F7868DCE
:1009F00081FD20958091940190E001968F73992755
:100A000030919301381749F0A0919401B0E0A65BB2
:100A1000BE4F2C938093940103C0868D8160868F96
:100A2000828D938D0197F1F7A389B4899C91858973
:100A3000892B8C93FF91EF91BF91AF919F918F91F3
:100A40007F916F915F914F913F912F910F900FBECA
:100A50000F901F901895CF93DF931092A9011092D9
:100A6000A80188EE93E0A0E0B0E08093AA01909303
:100A7000AB01A093AC01B093AD012CE031E0309319
:100A8000A7012093A60125EC30E03093B301209319
:100A9000B20124EC30E03093B5012093B40120EC96
:100AA00030E03093B7012093B60121EC30E0309371
:100AB000B9012093B80122EC30E03093BB012093C0
:100AC000BA0126EC30E03093BD012093BC011092B6
:100AD000BF011092C0011092C1011092C201109288
:100AE0006A021092690280936B0290936C02A09349
:100AF0006D02B0936E028EE191E090936802809354
:100B0000670210927E0210927D0210928002109273
:100B10007F0210928202109281021092840210923F
:100B20008302609185026E7F6D7F6093850266957A
:100B3000617081E068278BE00E94FB01E4EFF0E048
:100B40002491E0EEF0E08491882399F090E0880F02
:100B5000991FFC01EF53FF4FA591B491FC01E9549B
:100B6000FF4F859194918FB7F894EC91E22BEC9321
:100B70008FBFE4EFF0E0E491E0937702E0EEF0E085
:100B8000E491F0E0EE0FFF1FE954FF4F859194913F
:100B90009093790280937802E3EFF0E02491EFEDF7
:100BA000F0E084918823C1F090E0880F991FFC0148
:100BB000EF53FF4FC591D491FC01E954FF4FA5912C
:100BC000B4919FB7F8948881E22FE0958E238883B3
:100BD0008C91E823EC939FBF8091850281FD04C036
:100BE00061E08AE00E94FB018AE080937302E3EFF8
:100BF000F0E0E491E0937402EFEDF0E0E491F0E0D6
:100C0000EE0FFF1FE553FF4F85919491909376026D
:100C10008093750287E692E0909366028093650266
:100C20008FEF809361028093620210926302C9E4A5
:100C3000D2E06EE271E0CE010E94FA03269682E0D5
:100C4000C136D807B1F76EE271E083E492E0DF913C
:100C5000CF910C94FA03CF93DF93CDB7DEB76B97A8
:100C60000FB6F894DEBF0FBECDBF789484B5826016
:100C700084BD84B5816084BD85B5826085BD85B540
:100C8000816085BD80916E00816080936E001092BE
:100C90008100809181008260809381008091810039
:100CA00081608093810080918000816080938000CA
:100CB0008091B10084608093B1008091B000816028
:100CC0008093B00080917A00846080937A00809154
:100CD0007A00826080937A0080917A0081608093AC
:100CE0007A0080917A00806880937A001092C10027
:100CF000E091B601F091B70182E08083E091B2010A
:100D0000F091B3011082E091B401F091B5018FEC44
:100D100080831092BE01E091BA01F091BB0186E0A0
:100D20008083E091B801F091B90180818061808376
:100D3000E091B801F091B901808188608083E091F1
:100D4000B801F091B901808180688083E091B80199
:100D5000F091B90180818F7D808310928202109280
:100D600081021092800210927F0210927E021092F5
:100D70007D028DE991E090938402809383029091AB
:100D80007302963108F057C02DEB30E030937E02AD
:100D900020937D022BE931E03093800220937F0283
:100DA0002CE231E03093820220938102209168008E
:100DB000983050F031E09E3008F430E081E001C01E
:100DC000880F3A95EAF701C084E0822B809368008F
:100DD000983038F09E3040F0963148F020E030E016
:100DE00008C02DE630E005C02BE630E002C02CE65E
:100DF00030E030937B0220937A02983030F481E027
:100E000001C0880F9A95EAF70EC0292F30E09E3076
:100E100018F42850310902C02E50310981E001C078
:100E2000880F2A95EAF780937C0280918302909143
:100E300084020197F1F78091810290918202892BBF
:100E400049F1E0919501F091960182E0E736F807CB
:100E500009F1309739F0A389B4899C9185898095EF
:100E600089238C93809185028E7F809385021092D6
:100E700094011092930187E692E0909396018093FB
:100E80009501E0917A02F0917B02908180917C0241
:100E9000892B80838FE291E00E94F1028CE291E045
:100EA0000E94F10246E0B42EAA24A3946EE271E0FF
:100EB000CE0143960E94FA036EE271E0CE010D96D8
:100EC0000E94FA036EE271E0CE0107960E94FA03D7
:100ED0006EE271E0CE0101960E94FA0386EA91E08B
:100EE0000E945101181619060CF082C08091A501CC
:100EF00081117EC086EA91E00E942F018A3351F46D
:100F00008091970190919801019690939801809318
:100F1000970109C08C3209F03CC1A092A501109242
:100F200098011092970169E472E0CE0143960E9405
:100F3000D9036FE472E0CE010D960E94D90365E5F6
:100F400072E0CE0107960E94D9036BE572E0CE01F4
:100F500001960E94D903BE016D5E7F4F83E492E04B
:100F60000E94D9038D859E85009719F00E9424095F
:100F700003C060E070E0CB0160939D0170939E011F
:100F800080939F019093A0018F819885009719F01D
:100F90000E94240903C060E070E0CB0160939901D6
:100FA00070939A0180939B0190939C0189819A810F
:100FB000009719F00E94240903C060E070E0CB01A3
:100FC0006093A1017093A2018093A3019093A40167
:100FD00009E412E040E050E066E071E0C8010E94E0
:100FE000AE030A5F1F4FF2E001361F0799F776CF75
:100FF00089819A810E94390D8F8198850E94390DCF
:101000008D859E850E94390D8B899C890E94390DA2
:101010008091A501882309F4B7C08091470290917F
:101020004802892B09F46DC06EE371E080914302A0
:10103000909144020E94A90E892B09F062C0609130
:10104000A1017091A2018091A3019091A4010E943D
:101050001E0C6B017C0160919D0170919E0180913D
:101060009F019091A0010E941E0C89E86B8F0E9445
:10107000E2006B8D862F8F770E94BD008C2D8F77BD
:101080000E94BD00C601880F892F881F990B91957A
:101090008F770E94BD008091630281110E94AB0096
:1010A0006091990170919A0180919B0190919C01AE
:1010B0000E941E0C6B017C0160919D0170919E014C
:1010C00080919F019091A0010E941E0C84E86B8F7B
:1010D0000E94E2006B8D862F8F770E94BD008C2DC1
:1010E0008F770E94BD00C601880F892F881F990B3A
:1010F00091958F770E94BD008091630281110E94BB
:10110000AB00E0904702F0904802E114F104E1F1F5
:10111000009143021091440264E471E0C8010E940E
:10112000A90E892B89F5A701B80186EA91E00E94F2
:10113000F5008CE291E00E94F10260919D017091B6
:101140009E0180919F019091A0010E941E0CCB01F5
:101150000E9403036091990170919A0180919B0113
:1011600090919C010E941E0CCB010E940303609190
:10117000A1017091A2018091A3019091A4010E940C
:101180001E0CCB010E9403031092A5010E94F101E5
:101190008DCE2091970130919801898F1A8EB29E41
:1011A0008001B39E100D1124075B1D4FF801E480F0
:1011B000F580FFEFEF1AFF0AB701C8010E9487030D
:1011C000882309F4B0CEF801208131818481958192
:1011D000BE01675E7F4F820F931F0E94B20EF8011F
:1011E000F582E482A0CECF93DF9380914302909169
:1011F00044020E94390DC1E6D2E026978881998188
:101200000E94390D82E0C934D807B9F78EE191E028
:101210009093680280936702809195019091960166
:101220008756924071F4E0917A02F0917B029081AE
:1012300080917C0280958923808310929601109280
:101240009501DF91CF910895662777270C9428099F
:10125000A0E0B0E0EEE2F9E00C94DC0BEC017B01E5
:101260006115710519F0DB018D939C938E010F5F61
:101270001F4F7880872D90E00E94850A892B11F0FE
:10128000E801F4CFBDE27B1205C00F5F1F4F7980EC
:10129000C1E008C0EBE27E1204C08E010E5F1F4F5A
:1012A0007980C0E06801F1E0CF1AD10843E050E056
:1012B00060E770E0C6010E948E0A892BF1F4680194
:1012C00022E0C20ED11C45E050E06BE670E0C601A2
:1012D0000E948E0A892B21F4680187E0C80ED11C78
:1012E000E114F10419F0D701CD92DC92C111FFC0D5
:1012F00060E070E080E89FE703C143E050E068E60B
:1013000070E0C6010E948E0A892B51F4E114F104A9
:1013100009F4F2C00E5F1F4FF70111830083ECC088
:10132000680160E070E0CB0100E010E0F601D0ED74
:10133000D70DDA3058F52C2F2260622E2C2F287012
:10134000C2FF05C0211128C00F5F1F4F25C02223F7
:1013500011F001501109A5E0B0E09B01AC010E9421
:10136000CD0B4B015C01880C991CAA1CBB1CC50150
:10137000B4016D0F711D811D911D6839A9E97A07AE
:101380008A07A9E19A0740F0C66005C0DE3F51F424
:10139000C3FD44C0C8606C2EBFEFCB1ADB0A70805F
:1013A000C62DC4CF2D2F2F7D2531C1F540814D3263
:1013B00011F4C06106C04B3221F0319621E030E0DB
:1013C00006C03296D60111964C9122E030E0A0ED95
:1013D000A40FAA3018F0E21BF30B20C040E050E04D
:1013E0004038BCE05B075CF49A01220F331F220FE8
:1013F000331F420F531F440F551F4A0F511D319683
:10140000DF0111972C91A0EDA20FAA3048F3C4FF81
:1014100003C0519541955109040F151FC1FF07C025
:10142000E114F10421F03197D701ED93FC930E9470
:10143000AB0AC370C33019F06B017C0106C06B01AD
:101440007C01F7FAF094F7F8F09420E030E0A9017D
:10145000C701B6010E94A60A882309F445C017FFF8
:1014600006C0119501951109C7E8D0E002C0CFE987
:10147000D0E05E01B8E1AB1AB1084601BE2DAF2D38
:1014800090E2E92EF12C0E151F0584F0FE01259146
:10149000359145915491B4018B2F9A2F0E940C0BDA
:1014A0004B01B82FA92F0E191F09EDCF2497F594E2
:1014B000E794CA15DB0539F76401EB2EFA2E8E2D61
:1014C000880F8F2D881F8F3F49F020E030E0A90161
:1014D000C701B6010E94A60A811106C082E290E00F
:1014E0009093870280938602C701B60109C060E02D
:1014F00070E080E89FEF04C060E070E080EC9FE760
:10150000CDB7DEB7EEE00C94F80B91110C94790B8B
:10151000803219F089508550C8F70895FB01DC012D
:101520004150504088F08D9181341CF08B350CF483
:10153000805E659161341CF06B350CF4605E861B37
:10154000611171F3990B0895881BFCCF0E94E80A82
:1015500008F481E00895E89409C097FB3EF4909563
:101560008095709561957F4F8F4F9F4F9923A9F07C
:10157000F92F96E9BB279395F6958795779567950B
:10158000B795F111F8CFFAF4BB0F11F460FF1BC04F
:101590006F5F7F4F8F4F9F4F16C0882311F096E9E2
:1015A00011C0772321F09EE8872F762F05C0662390
:1015B00071F096E8862F70E060E02AF09A95660F49
:1015C000771F881FDAF7880F9695879597F9089502
:1015D000990F0008550FAA0BE0E8FEEF1616170644
:1015E000E807F907C0F012161306E407F50798F0AC
:1015F000621B730B840B950B39F40A2661F0232BC5
:10160000242B252B21F408950A2609F4A140A69540
:101610008FEF811D811D08950E941F0B0C94930B69
:101620000E94850B38F00E948C0B20F0952311F05E
:101630000C947C0B0C94820B11240C94C70B0E940D
:10164000A40B70F3959FC1F3950F50E0551F629F57
:10165000F001729FBB27F00DB11D639FAA27F00D0B
:10166000B11DAA1F649F6627B00DA11D661F829F32
:101670002227B00DA11D621F739FB00DA11D621F17
:10168000839FA00D611D221F749F3327A00D611D34
:10169000231F849F600D211D822F762F6A2F112416
:1016A0009F5750409AF0F1F088234AF0EE0FFF1F49
:1016B000BB1F661F771F881F91505040A9F79E3FA0
:1016C000510580F00C947C0B0C94C70B5F3FE4F346
:1016D000983ED4F3869577956795B795F795E795F6
:1016E0009F5FC1F7FE2B880F911D9695879597F9FF
:1016F000089599278827089597F99F6780E870E0F3
:1017000060E008959FEF80EC089500240A94161677
:10171000170618060906089500240A9412161306DF
:10172000140605060895092E0394000C11F488236D
:1017300052F0BB0F40F4BF2B11F460FF04C06F5F89
:101740007F4F8F4F9F4F089557FD9058440F551F5F
:1017500059F05F3F71F04795880F97FB991F61F033
:101760009F3F79F087950895121613061406551FAA
:10177000F2CF4695F1DF08C0161617061806991F16
:10178000F1CF86957105610508940895E894BB270B
:1017900066277727CB0197F908950E940F0CA59F24
:1017A000900DB49F900DA49F800D911D112408955C
:1017B0002F923F924F925F926F927F928F929F9261
:1017C000AF92BF92CF92DF92EF92FF920F931F934F
:1017D000CF93DF93CDB7DEB7CA1BDB0B0FB6F89400
:1017E000DEBF0FBECDBF09942A88398848885F8440
:1017F0006E847D848C849B84AA84B984C884DF80B1
:10180000EE80FD800C811B81AA81B981CE0FD11D94
:101810000FB6F894DEBF0FBECDBFED010895A29FB5
:10182000B001B39FC001A39F700D811D1124911DB4
:10183000B29F700D811D1124911D08950E94250CE9
:101840006894B1110C94C70B08950E94AC0B88F0FA
:101850009F5798F0B92F9927B751B0F0E1F0660F74
:10186000771F881F991F1AF0BA95C9F714C0B130B5
:1018700091F00E94C60BB1E008950C94C60B672F3F
:10188000782F8827B85F39F0B93FCCF386957795E4
:101890006795B395D9F73EF49095809570956195CD
:1018A0007F4F8F4F9F4F089597FB072E16F400949C
:1018B00007D077FD09D00E948A0C07FC05D03EF4C2
:1018C000909581959F4F0895709561957F4F0895EC
:1018D000A1E21A2EAA1BBB1BFD010DC0AA1FBB1F34
:1018E000EE1FFF1FA217B307E407F50720F0A21BA6
:1018F000B30BE40BF50B661F771F881F991F1A9413
:1019000069F760957095809590959B01AC01BD013C
:10191000CF010895AA1BBB1B51E107C0AA1FBB1F23
:10192000A617B70710F0A61BB70B881F991F5A956B
:10193000A9F780959095BC01CD010895EE0FFF1F8A
:101940000590F491E02D0994CF93DF9382309105B7
:1019500010F482E090E0E0918A02F0918B0220E0A6
:1019600030E0C0E0D0E0309711F14081518148175C
:101970005907C0F04817590761F482819381209775
:1019800019F09B838A832BC090938B0280938A02E9
:1019900026C02115310519F04217530718F49A0192
:1019A000BE01DF01EF010280F381E02DDCCF2115C4
:1019B000310509F1281B390B2430310590F41296BA
:1019C0008D919C9113976115710521F0FB01938313
:1019D000828304C090938B0280938A02FD01329629
:1019E00044C0FD01E20FF31F81939193225031090E
:1019F0002D933C933AC02091880230918902232B89
:101A000041F4209102013091030130938902209327
:101A1000880220910001309101012115310541F426
:101A20002DB73EB74091040150910501241B350BA1
:101A3000E0918802F0918902E217F307A0F42E1BCF
:101A40003F0B2817390778F0AC014E5F5F4F241722
:101A5000350748F04E0F5F1F50938902409388026C
:101A60008193919302C0E0E0F0E0CF01DF91CF914C
:101A700008950F931F93CF93DF93009709F48CC0C1
:101A8000FC0132971382128200918A0210918B021C
:101A90000115110581F420813181820F931F20915E
:101AA0008802309189022817390779F5F093890265
:101AB000E093880271C0D80140E050E0AE17BF0744
:101AC00050F412962D913C911397AD0121153105DB
:101AD00009F1D901F3CF9D01DA01338322836081BB
:101AE0007181860F971F8217930769F4EC01288193
:101AF0003981260F371F2E5F3F4F318320838A8124
:101B00009B8193838283452B29F4F0938B02E0938E
:101B10008A0242C01396FC93EE931297ED0149910D
:101B200059919E01240F351FE217F30771F480814C
:101B30009181840F951F029611969C938E938281BA
:101B4000938113969C938E931297E0E0F0E0D80176
:101B500012968D919C911397009719F0F8018C01C2
:101B6000F6CF8D919C9198012E5F3F4F820F931F6E
:101B700020918802309189022817390769F430973B
:101B800029F410928B0210928A0202C013821282F0
:101B90001093890200938802DF91CF911F910F91DA
:101BA0000895A0E0B0E0E7EDFDE00C94DC0BEC0163
:101BB000009721F4CB010E94A40CB8C0FC01E60FF1
:101BC000F71F9C0122503109E217F30708F4ACC05B
:101BD000D9010D911C91119706171707B0F0053028
:101BE000110508F49FC0C80104978617970708F4E9
:101BF00099C002501109061B170B019311936D93A5
:101C00007C93CF010E94390D8DC05B01A01AB10AEF
:101C10004C01800E911EA0918A02B0918B0240E08F
:101C200050E0E12CF12C109709F44AC0A815B90531
:101C3000D1F56D907C901197630182E0C80ED11CA4
:101C4000CA14DB0480F1A3014A195B096A0182E02E
:101C5000C80ED11C1296BC9012971396AC91B5E0A9
:101C6000CB16D10440F0B282A38351834083D901C3
:101C70006D937C930AC00E5F1F4FC301800F911FAD
:101C8000F90191838083EB2DFA2FE114F10431F0F7
:101C9000D7011396FC93EE93129744C0F0938B02F6
:101CA000E0938A023FC08D919C9111974817590784
:101CB00008F4AC017D0112960D90BC91A02DB3CF1C
:101CC000809188029091890288159905E1F4461760
:101CD0005707C8F48091000190910101009741F4E9
:101CE0008DB79EB74091040150910501841B950B5F
:101CF000E817F907C8F4F0938902E0938802F90124
:101D0000718360830FC0CB010E94A40C7C010097FB
:101D100059F0A801BE010E94A00ECE010E94390D0B
:101D2000C70104C0CE0102C080E090E0CDB7DEB7AD
:101D3000EEE00C94F80B81E090E0F8940C94B90E6E
:101D4000FB01DC0102C001900D9241505040D8F7D8
:101D50000895FB01DC018D91019080190110D9F3E8
:101D6000990B0895FB01DC0101900D920020E1F731
:101D7000089510E0C0E8D0E004C0FE010E949E0C6F
:0C1D80002196C138D107C9F7F894FFCFB5
:101D8C0000008C0280000000000000008801F500BB
:101D9C002001CF0151012F0143010000000060021E
:101DAC00F500EE025F02B402CC0247020D0A003CC1
:101DBC0053657269616C2053657475703E00736570
:0A1DCC0072766F00746573740000F6
:00000001FF
